{"abi":[{"type":"constructor","inputs":[{"name":"initialOwner","type":"address","internalType":"address"}],"stateMutability":"nonpayable"},{"type":"function","name":"allowance","inputs":[{"name":"owner","type":"address","internalType":"address"},{"name":"spender","type":"address","internalType":"address"}],"outputs":[{"name":"","type":"uint256","internalType":"uint256"}],"stateMutability":"view"},{"type":"function","name":"approve","inputs":[{"name":"spender","type":"address","internalType":"address"},{"name":"value","type":"uint256","internalType":"uint256"}],"outputs":[{"name":"","type":"bool","internalType":"bool"}],"stateMutability":"nonpayable"},{"type":"function","name":"balanceOf","inputs":[{"name":"account","type":"address","internalType":"address"}],"outputs":[{"name":"","type":"uint256","internalType":"uint256"}],"stateMutability":"view"},{"type":"function","name":"claim","inputs":[{"name":"account","type":"address","internalType":"address"},{"name":"cumulativeAmount","type":"uint256","internalType":"uint256"},{"name":"proof","type":"bytes32[]","internalType":"bytes32[]"}],"outputs":[],"stateMutability":"nonpayable"},{"type":"function","name":"claimed","inputs":[{"name":"","type":"address","internalType":"address"}],"outputs":[{"name":"","type":"uint256","internalType":"uint256"}],"stateMutability":"view"},{"type":"function","name":"decimals","inputs":[],"outputs":[{"name":"","type":"uint8","internalType":"uint8"}],"stateMutability":"view"},{"type":"function","name":"merkleRoot","inputs":[],"outputs":[{"name":"","type":"bytes32","internalType":"bytes32"}],"stateMutability":"view"},{"type":"function","name":"name","inputs":[],"outputs":[{"name":"","type":"string","internalType":"string"}],"stateMutability":"view"},{"type":"function","name":"owner","inputs":[],"outputs":[{"name":"","type":"address","internalType":"address"}],"stateMutability":"view"},{"type":"function","name":"renounceOwnership","inputs":[],"outputs":[],"stateMutability":"nonpayable"},{"type":"function","name":"symbol","inputs":[],"outputs":[{"name":"","type":"string","internalType":"string"}],"stateMutability":"view"},{"type":"function","name":"totalSupply","inputs":[],"outputs":[{"name":"","type":"uint256","internalType":"uint256"}],"stateMutability":"view"},{"type":"function","name":"transfer","inputs":[{"name":"to","type":"address","internalType":"address"},{"name":"value","type":"uint256","internalType":"uint256"}],"outputs":[{"name":"","type":"bool","internalType":"bool"}],"stateMutability":"nonpayable"},{"type":"function","name":"transferFrom","inputs":[{"name":"from","type":"address","internalType":"address"},{"name":"to","type":"address","internalType":"address"},{"name":"value","type":"uint256","internalType":"uint256"}],"outputs":[{"name":"","type":"bool","internalType":"bool"}],"stateMutability":"nonpayable"},{"type":"function","name":"transferOwnership","inputs":[{"name":"newOwner","type":"address","internalType":"address"}],"outputs":[],"stateMutability":"nonpayable"},{"type":"function","name":"updateRoot","inputs":[{"name":"newRoot","type":"bytes32","internalType":"bytes32"}],"outputs":[],"stateMutability":"nonpayable"},{"type":"event","name":"Approval","inputs":[{"name":"owner","type":"address","indexed":true,"internalType":"address"},{"name":"spender","type":"address","indexed":true,"internalType":"address"},{"name":"value","type":"uint256","indexed":false,"internalType":"uint256"}],"anonymous":false},{"type":"event","name":"Claimed","inputs":[{"name":"account","type":"address","indexed":true,"internalType":"address"},{"name":"amount","type":"uint256","indexed":false,"internalType":"uint256"}],"anonymous":false},{"type":"event","name":"OwnershipTransferred","inputs":[{"name":"previousOwner","type":"address","indexed":true,"internalType":"address"},{"name":"newOwner","type":"address","indexed":true,"internalType":"address"}],"anonymous":false},{"type":"event","name":"RootUpdated","inputs":[{"name":"root","type":"bytes32","indexed":true,"internalType":"bytes32"}],"anonymous":false},{"type":"event","name":"Transfer","inputs":[{"name":"from","type":"address","indexed":true,"internalType":"address"},{"name":"to","type":"address","indexed":true,"internalType":"address"},{"name":"value","type":"uint256","indexed":false,"internalType":"uint256"}],"anonymous":false},{"type":"error","name":"ERC20InsufficientAllowance","inputs":[{"name":"spender","type":"address","internalType":"address"},{"name":"allowance","type":"uint256","internalType":"uint256"},{"name":"needed","type":"uint256","internalType":"uint256"}]},{"type":"error","name":"ERC20InsufficientBalance","inputs":[{"name":"sender","type":"address","internalType":"address"},{"name":"balance","type":"uint256","internalType":"uint256"},{"name":"needed","type":"uint256","internalType":"uint256"}]},{"type":"error","name":"ERC20InvalidApprover","inputs":[{"name":"approver","type":"address","internalType":"address"}]},{"type":"error","name":"ERC20InvalidReceiver","inputs":[{"name":"receiver","type":"address","internalType":"address"}]},{"type":"error","name":"ERC20InvalidSender","inputs":[{"name":"sender","type":"address","internalType":"address"}]},{"type":"error","name":"ERC20InvalidSpender","inputs":[{"name":"spender","type":"address","internalType":"address"}]},{"type":"error","name":"OwnableInvalidOwner","inputs":[{"name":"owner","type":"address","internalType":"address"}]},{"type":"error","name":"OwnableUnauthorizedAccount","inputs":[{"name":"account","type":"address","internalType":"address"}]}],"bytecode":{"object":"0x608060405234801562000010575f80fd5b5060405162001de638038062001de683398181016040528101906200003691906200027d565b806040518060400160405280600881526020017f4d617468436f696e0000000000000000000000000000000000000000000000008152506040518060400160405280600481526020017f4d415448000000000000000000000000000000000000000000000000000000008152508160039081620000b4919062000511565b508060049081620000c6919062000511565b5050505f73ffffffffffffffffffffffffffffffffffffffff168173ffffffffffffffffffffffffffffffffffffffff16036200013c575f6040517f1e4fbdf700000000000000000000000000000000000000000000000000000000815260040162000133919062000606565b60405180910390fd5b6200014d816200015560201b60201c565b505062000621565b5f60055f9054906101000a900473ffffffffffffffffffffffffffffffffffffffff1690508160055f6101000a81548173ffffffffffffffffffffffffffffffffffffffff021916908373ffffffffffffffffffffffffffffffffffffffff1602179055508173ffffffffffffffffffffffffffffffffffffffff168173ffffffffffffffffffffffffffffffffffffffff167f8be0079c531659141344cd1fd0a4f28419497f9722a3daafe3b4186f6b6457e060405160405180910390a35050565b5f80fd5b5f73ffffffffffffffffffffffffffffffffffffffff82169050919050565b5f62000247826200021c565b9050919050565b62000259816200023b565b811462000264575f80fd5b50565b5f8151905062000277816200024e565b92915050565b5f6020828403121562000295576200029462000218565b5b5f620002a48482850162000267565b91505092915050565b5f81519050919050565b7f4e487b71000000000000000000000000000000000000000000000000000000005f52604160045260245ffd5b7f4e487b71000000000000000000000000000000000000000000000000000000005f52602260045260245ffd5b5f60028204905060018216806200032957607f821691505b6020821081036200033f576200033e620002e4565b5b50919050565b5f819050815f5260205f209050919050565b5f6020601f8301049050919050565b5f82821b905092915050565b5f60088302620003a37fffffffffffffffffffffffffffffffffffffffffffffffffffffffffffffffff8262000366565b620003af868362000366565b95508019841693508086168417925050509392505050565b5f819050919050565b5f819050919050565b5f620003f9620003f3620003ed84620003c7565b620003d0565b620003c7565b9050919050565b5f819050919050565b6200041483620003d9565b6200042c620004238262000400565b84845462000372565b825550505050565b5f90565b6200044262000434565b6200044f81848462000409565b505050565b5b8181101562000476576200046a5f8262000438565b60018101905062000455565b5050565b601f821115620004c5576200048f8162000345565b6200049a8462000357565b81016020851015620004aa578190505b620004c2620004b98562000357565b83018262000454565b50505b505050565b5f82821c905092915050565b5f620004e75f1984600802620004ca565b1980831691505092915050565b5f620005018383620004d6565b9150826002028217905092915050565b6200051c82620002ad565b67ffffffffffffffff811115620005385762000537620002b7565b5b62000544825462000311565b620005518282856200047a565b5f60209050601f83116001811462000587575f841562000572578287015190505b6200057e8582620004f4565b865550620005ed565b601f198416620005978662000345565b5f5b82811015620005c05784890151825560018201915060208501945060208101905062000599565b86831015620005e05784890151620005dc601f891682620004d6565b8355505b6001600288020188555050505b505050505050565b62000600816200023b565b82525050565b5f6020820190506200061b5f830184620005f5565b92915050565b6117b7806200062f5f395ff3fe608060405234801561000f575f80fd5b50600436106100fe575f3560e01c806370a0823111610095578063a9059cbb11610064578063a9059cbb14610288578063c884ef83146102b8578063dd62ed3e146102e8578063f2fde38b14610318576100fe565b806370a0823114610212578063715018a6146102425780638da5cb5b1461024c57806395d89b411461026a576100fe565b806323b872dd116100d157806323b872dd1461018a5780632eb4a7ab146101ba578063313ce567146101d85780633d13f874146101f6576100fe565b806306fdde0314610102578063095ea7b31461012057806318160ddd1461015057806321ff99701461016e575b5f80fd5b61010a610334565b6040516101179190611143565b60405180910390f35b61013a600480360381019061013591906111f8565b6103c4565b6040516101479190611250565b60405180910390f35b6101586103e6565b6040516101659190611278565b60405180910390f35b610188600480360381019061018391906112c4565b6103ef565b005b6101a4600480360381019061019f91906112ef565b61042e565b6040516101b19190611250565b60405180910390f35b6101c261045c565b6040516101cf919061134e565b60405180910390f35b6101e0610462565b6040516101ed9190611382565b60405180910390f35b610210600480360381019061020b91906113fc565b61046a565b005b61022c6004803603810190610227919061146d565b61067d565b6040516102399190611278565b60405180910390f35b61024a6106c2565b005b6102546106d5565b60405161026191906114a7565b60405180910390f35b6102726106fd565b60405161027f9190611143565b60405180910390f35b6102a2600480360381019061029d91906111f8565b61078d565b6040516102af9190611250565b60405180910390f35b6102d260048036038101906102cd919061146d565b6107af565b6040516102df9190611278565b60405180910390f35b61030260048036038101906102fd91906114c0565b6107c4565b60405161030f9190611278565b60405180910390f35b610332600480360381019061032d919061146d565b610846565b005b6060600380546103439061152b565b80601f016020809104026020016040519081016040528092919081815260200182805461036f9061152b565b80156103ba5780601f10610391576101008083540402835291602001916103ba565b820191905f5260205f20905b81548152906001019060200180831161039d57829003601f168201915b5050505050905090565b5f806103ce6108ca565b90506103db8185856108d1565b600191505092915050565b5f600254905090565b6103f76108e3565b80600681905550807f2cbc14f49c068133583f7cb530018af451c87c1cf1327cf2a4ff4698c4730aa460405160405180910390a250565b5f806104386108ca565b905061044585828561096a565b6104508585856109fd565b60019150509392505050565b60065481565b5f6012905090565b5f848460405160200161047e92919061155b565b604051602081830303815290604052805190602001206040516020016104a491906115a2565b6040516020818303038152906040528051906020012090506105098383808060200260200160405190810160405280939291908181526020018383602002808284375f81840152601f19601f8201169050808301925050505050505060065483610aed565b610548576040517f08c379a000000000000000000000000000000000000000000000000000000000815260040161053f90611606565b60405180910390fd5b5f60075f8773ffffffffffffffffffffffffffffffffffffffff1673ffffffffffffffffffffffffffffffffffffffff1681526020019081526020015f205490508085116105cb576040517f08c379a00000000000000000000000000000000000000000000000000000000081526004016105c29061166e565b60405180910390fd5b5f81866105d891906116b9565b90508560075f8973ffffffffffffffffffffffffffffffffffffffff1673ffffffffffffffffffffffffffffffffffffffff1681526020019081526020015f20819055506106268782610b03565b8673ffffffffffffffffffffffffffffffffffffffff167fd8138f8a3f377c5259ca548e70e4c2de94f129f5a11036a15b69513cba2b426a8260405161066c9190611278565b60405180910390a250505050505050565b5f805f8373ffffffffffffffffffffffffffffffffffffffff1673ffffffffffffffffffffffffffffffffffffffff1681526020019081526020015f20549050919050565b6106ca6108e3565b6106d35f610b82565b565b5f60055f9054906101000a900473ffffffffffffffffffffffffffffffffffffffff16905090565b60606004805461070c9061152b565b80601f01602080910402602001604051908101604052809291908181526020018280546107389061152b565b80156107835780601f1061075a57610100808354040283529160200191610783565b820191905f5260205f20905b81548152906001019060200180831161076657829003601f168201915b5050505050905090565b5f806107976108ca565b90506107a48185856109fd565b600191505092915050565b6007602052805f5260405f205f915090505481565b5f60015f8473ffffffffffffffffffffffffffffffffffffffff1673ffffffffffffffffffffffffffffffffffffffff1681526020019081526020015f205f8373ffffffffffffffffffffffffffffffffffffffff1673ffffffffffffffffffffffffffffffffffffffff1681526020019081526020015f2054905092915050565b61084e6108e3565b5f73ffffffffffffffffffffffffffffffffffffffff168173ffffffffffffffffffffffffffffffffffffffff16036108be575f6040517f1e4fbdf70000000000000000000000000000000000000000000000000000000081526004016108b591906114a7565b60405180910390fd5b6108c781610b82565b50565b5f33905090565b6108de8383836001610c45565b505050565b6108eb6108ca565b73ffffffffffffffffffffffffffffffffffffffff166109096106d5565b73ffffffffffffffffffffffffffffffffffffffff16146109685761092c6108ca565b6040517f118cdaa700000000000000000000000000000000000000000000000000000000815260040161095f91906114a7565b60405180910390fd5b565b5f61097584846107c4565b90507fffffffffffffffffffffffffffffffffffffffffffffffffffffffffffffffff8110156109f757818110156109e8578281836040517ffb8f41b20000000000000000000000000000000000000000000000000000000081526004016109df939291906116ec565b60405180910390fd5b6109f684848484035f610c45565b5b50505050565b5f73ffffffffffffffffffffffffffffffffffffffff168373ffffffffffffffffffffffffffffffffffffffff1603610a6d575f6040517f96c6fd1e000000000000000000000000000000000000000000000000000000008152600401610a6491906114a7565b60405180910390fd5b5f73ffffffffffffffffffffffffffffffffffffffff168273ffffffffffffffffffffffffffffffffffffffff1603610add575f6040517fec442f05000000000000000000000000000000000000000000000000000000008152600401610ad491906114a7565b60405180910390fd5b610ae8838383610e14565b505050565b5f82610af9858461102d565b1490509392505050565b5f73ffffffffffffffffffffffffffffffffffffffff168273ffffffffffffffffffffffffffffffffffffffff1603610b73575f6040517fec442f05000000000000000000000000000000000000000000000000000000008152600401610b6a91906114a7565b60405180910390fd5b610b7e5f8383610e14565b5050565b5f60055f9054906101000a900473ffffffffffffffffffffffffffffffffffffffff1690508160055f6101000a81548173ffffffffffffffffffffffffffffffffffffffff021916908373ffffffffffffffffffffffffffffffffffffffff1602179055508173ffffffffffffffffffffffffffffffffffffffff168173ffffffffffffffffffffffffffffffffffffffff167f8be0079c531659141344cd1fd0a4f28419497f9722a3daafe3b4186f6b6457e060405160405180910390a35050565b5f73ffffffffffffffffffffffffffffffffffffffff168473ffffffffffffffffffffffffffffffffffffffff1603610cb5575f6040517fe602df05000000000000000000000000000000000000000000000000000000008152600401610cac91906114a7565b60405180910390fd5b5f73ffffffffffffffffffffffffffffffffffffffff168373ffffffffffffffffffffffffffffffffffffffff1603610d25575f6040517f94280d62000000000000000000000000000000000000000000000000000000008152600401610d1c91906114a7565b60405180910390fd5b8160015f8673ffffffffffffffffffffffffffffffffffffffff1673ffffffffffffffffffffffffffffffffffffffff1681526020019081526020015f205f8573ffffffffffffffffffffffffffffffffffffffff1673ffffffffffffffffffffffffffffffffffffffff1681526020019081526020015f20819055508015610e0e578273ffffffffffffffffffffffffffffffffffffffff168473ffffffffffffffffffffffffffffffffffffffff167f8c5be1e5ebec7d5bd14f71427d1e84f3dd0314c0f7b2291e5b200ac8c7c3b92584604051610e059190611278565b60405180910390a35b50505050565b5f73ffffffffffffffffffffffffffffffffffffffff168373ffffffffffffffffffffffffffffffffffffffff1603610e64578060025f828254610e589190611721565b92505081905550610f32565b5f805f8573ffffffffffffffffffffffffffffffffffffffff1673ffffffffffffffffffffffffffffffffffffffff1681526020019081526020015f2054905081811015610eed578381836040517fe450d38c000000000000000000000000000000000000000000000000000000008152600401610ee4939291906116ec565b60405180910390fd5b8181035f808673ffffffffffffffffffffffffffffffffffffffff1673ffffffffffffffffffffffffffffffffffffffff1681526020019081526020015f2081905550505b5f73ffffffffffffffffffffffffffffffffffffffff168273ffffffffffffffffffffffffffffffffffffffff1603610f79578060025f8282540392505081905550610fc3565b805f808473ffffffffffffffffffffffffffffffffffffffff1673ffffffffffffffffffffffffffffffffffffffff1681526020019081526020015f205f82825401925050819055505b8173ffffffffffffffffffffffffffffffffffffffff168373ffffffffffffffffffffffffffffffffffffffff167fddf252ad1be2c89b69c2b068fc378daa952ba7f163c4a11628f55a4df523b3ef836040516110209190611278565b60405180910390a3505050565b5f808290505f5b8451811015611070576110618286838151811061105457611053611754565b5b602002602001015161107b565b91508080600101915050611034565b508091505092915050565b5f8183106110925761108d82846110a5565b61109d565b61109c83836110a5565b5b905092915050565b5f825f528160205260405f20905092915050565b5f81519050919050565b5f82825260208201905092915050565b5f5b838110156110f05780820151818401526020810190506110d5565b5f8484015250505050565b5f601f19601f8301169050919050565b5f611115826110b9565b61111f81856110c3565b935061112f8185602086016110d3565b611138816110fb565b840191505092915050565b5f6020820190508181035f83015261115b818461110b565b905092915050565b5f80fd5b5f80fd5b5f73ffffffffffffffffffffffffffffffffffffffff82169050919050565b5f6111948261116b565b9050919050565b6111a48161118a565b81146111ae575f80fd5b50565b5f813590506111bf8161119b565b92915050565b5f819050919050565b6111d7816111c5565b81146111e1575f80fd5b50565b5f813590506111f2816111ce565b92915050565b5f806040838503121561120e5761120d611163565b5b5f61121b858286016111b1565b925050602061122c858286016111e4565b9150509250929050565b5f8115159050919050565b61124a81611236565b82525050565b5f6020820190506112635f830184611241565b92915050565b611272816111c5565b82525050565b5f60208201905061128b5f830184611269565b92915050565b5f819050919050565b6112a381611291565b81146112ad575f80fd5b50565b5f813590506112be8161129a565b92915050565b5f602082840312156112d9576112d8611163565b5b5f6112e6848285016112b0565b91505092915050565b5f805f6060848603121561130657611305611163565b5b5f611313868287016111b1565b9350506020611324868287016111b1565b9250506040611335868287016111e4565b9150509250925092565b61134881611291565b82525050565b5f6020820190506113615f83018461133f565b92915050565b5f60ff82169050919050565b61137c81611367565b82525050565b5f6020820190506113955f830184611373565b92915050565b5f80fd5b5f80fd5b5f80fd5b5f8083601f8401126113bc576113bb61139b565b5b8235905067ffffffffffffffff8111156113d9576113d861139f565b5b6020830191508360208202830111156113f5576113f46113a3565b5b9250929050565b5f805f806060858703121561141457611413611163565b5b5f611421878288016111b1565b9450506020611432878288016111e4565b935050604085013567ffffffffffffffff81111561145357611452611167565b5b61145f878288016113a7565b925092505092959194509250565b5f6020828403121561148257611481611163565b5b5f61148f848285016111b1565b91505092915050565b6114a18161118a565b82525050565b5f6020820190506114ba5f830184611498565b92915050565b5f80604083850312156114d6576114d5611163565b5b5f6114e3858286016111b1565b92505060206114f4858286016111b1565b9150509250929050565b7f4e487b71000000000000000000000000000000000000000000000000000000005f52602260045260245ffd5b5f600282049050600182168061154257607f821691505b602082108103611555576115546114fe565b5b50919050565b5f60408201905061156e5f830185611498565b61157b6020830184611269565b9392505050565b5f819050919050565b61159c61159782611291565b611582565b82525050565b5f6115ad828461158b565b60208201915081905092915050565b7f4d617468436f696e3a20696e76616c69642070726f6f660000000000000000005f82015250565b5f6115f06017836110c3565b91506115fb826115bc565b602082019050919050565b5f6020820190508181035f83015261161d816115e4565b9050919050565b7f4d617468436f696e3a206e6f7468696e6720746f20636c61696d0000000000005f82015250565b5f611658601a836110c3565b915061166382611624565b602082019050919050565b5f6020820190508181035f8301526116858161164c565b9050919050565b7f4e487b71000000000000000000000000000000000000000000000000000000005f52601160045260245ffd5b5f6116c3826111c5565b91506116ce836111c5565b92508282039050818111156116e6576116e561168c565b5b92915050565b5f6060820190506116ff5f830186611498565b61170c6020830185611269565b6117196040830184611269565b949350505050565b5f61172b826111c5565b9150611736836111c5565b925082820190508082111561174e5761174d61168c565b5b92915050565b7f4e487b71000000000000000000000000000000000000000000000000000000005f52603260045260245ffdfea2646970667358221220fb2cab0c0c531e145211b26dd4978be88123860a55e415174f5b18ae58037bba64736f6c63430008180033","linkReferences":{}},"methodIdentifiers":{"allowance(address,address)":"dd62ed3e","approve(address,uint256)":"095ea7b3","balanceOf(address)":"70a08231","claim(address,uint256,bytes32[])":"3d13f874","claimed(address)":"c884ef83","decimals()":"313ce567","merkleRoot()":"2eb4a7ab","name()":"06fdde03","owner()":"8da5cb5b","renounceOwnership()":"715018a6","symbol()":"95d89b41","totalSupply()":"18160ddd","transfer(address,uint256)":"a9059cbb","transferFrom(address,address,uint256)":"23b872dd","transferOwnership(address)":"f2fde38b","updateRoot(bytes32)":"21ff9970"},"id":8}